:020000040000FA
:060A0800000085312A2DDB
:100A10007E14853188310C2085310B1D282D0B115A
:100A200022005808803AFD0080307D02031D1A2DF7
:100A30000B305702031C212D2200DC01DC0AD701F8
:100A4000D80101302200D7070030D83D20009501A1
:100A50007E10090085312C2DA73084009B30850045
:100A6000653086000130870006309B31A123853137
:100A7000983084009B308500DF308600013087008D
:100A800003309B31A1238531E901EA01EB015230AA
:100A900084000130850013309B319B238531A030C9
:100AA00084000130850036309B319B237E1020006E
:100AB0009D316C2D2000300E890C0339003A031D46
:100AC0000800A82FB801B9010230F0007008220018
:100AD000D400B12D22005A080319702D2000B8143B
:100AE0008230F00070082200D60008008230F0004A
:100AF00070082200D6000800200034080F39F000EA
:100B00000230700203180800B41F8B2D34080F390F
:100B10000907013E8E2D34080F390907F0007008CF
:100B2000F7007708F0000130F035FF3E031D942DEB
:100B30007035203E86008701811FAB2D7708F000BD
:100B40000130F035FF3E031DA12D7035203E86009B
:100B50008701011938148230F00070082200D60095
:100B60000800200030081F39F000F1017108003A38
:100B70000319BB2DCE2F7008003A03196A2D013AD4
:100B80000319762D033A03197C2DCE2F080032036A
:100B9000031D08002200DA018430F0007008D6003E
:100BA000080020003208031D080034080F39003AFD
:100BB0000319080034080F39F000023070020318DE
:100BC0000800B41FF42D34080F390907013EF00066
:100BD0007008F8000830F0007808F1000130F135B5
:100BE000FF3E031DEF2D042E34080F390907013E87
:100BF000F0007008F8008830F0007808F10001304B
:100C0000F135FF3E031D002E7135203E8600870121
:100C1000700881008430F00070082200D6000800BF
:100C2000200030081F39F000F1017108003A031963
:100C30001A2ECE2F7008003A0319C72D023A031955
:100C4000D12DCE2F08003203031D08000130F00023
:100C500070082200DA008430F0007008D600080026
:100C600020003208031D080034080F39003A031928
:100C7000080034080F39F000023070020318080031
:100C8000B41F422E34080F390907013EF0007008E6
:100C9000F6008430F0007608F1000130F135FF3EB7
:100CA000031D4E2E7135203E86008701700881009D
:100CB0008430F00070082200D600080020003008C0
:100CC0001F39F000F1017108003A0319682ECE2F88
:100CD0007008003A0319232E023A0319302ECE2F42
:100CE00008000430F0007008E9008430F00070085B
:100CF0002200D6000800B01F0800CC2EA23022002F
:100D0000D2009830D3001230F0007008D400813047
:100D1000F0007008D600080020003208031D08000B
:100D200068302200D2009830D3002230F0007008E2
:100D3000D4008130F0007008D60008000330200095
:100D40003202031808003208031DAB2EBC3022000B
:100D5000D2009830BD2E20003203031DB42E003087
:100D60002200D2009830BD2E023020003206031D32
:100D7000BE2E8A302200D2009830D30022005208C2
:100D80008400530885000008F0007008D40081300A
:100D9000F0007008D600080020003308F000F101D0
:100DA0007108003A0319D52ECE2F7008013A0319A5
:100DB0007E2E033A03198C2E013A03199E2ECE2F54
:100DC00008006B302200D2000030D3000130F00068
:100DD0007008D4008030F0007008D60008002000B1
:100DE0003208F0007008EB006B03031D7F2FFA013F
:100DF000FA0A02307A0203187A2F7A08983EF00035
:100E0000F1010E30F13D70088600710887001E3038
:100E100081007A35F0007008F90003147A0DF000B3
:100E20007008F5007A08C63E840098300318013E29
:100E300085000008F0007908F1000130F135FF3E2F
:100E4000031D1E2F7135013E203E8600870170086C
:100E500081007908F000F101F035F10DB430F200B5
:100E60009830F3007008720786007108733D8700A0
:100E70007908F4000130F435FF3E031D3B2F743533
:100E8000023E203E84008501403F803F413F813F3C
:100E90000830F0007908F1000130F135FF3E031D04
:100EA0004D2F7135203E860087017008810079083A
:100EB000F0000130F035FF3E031D5A2F7035203E03
:100EC0008600870181174830F0007508F100013075
:100ED000F135FF3E031D682F7135203E86008701E6
:100EE000700881000130F0007008FA0702307A02C1
:100EF000031CFD2E0630F00070082000822F053004
:100F0000F0007008E9008430F00070082200D6007C
:100F10000800200034086A3E2200D2000030D300CE
:100F20000130F0007008D4008030F0007008D60066
:100F3000080020003208F00034086A3E860087016D
:100F4000700881008430F00070082200D60008008C
:100F500020003108F000F1017108003A0319B12FA7
:100F6000CE2F7008003A0319622D013A0319102E92
:100F7000023A03195E2E063A0319712E033A031939
:100F80007B2E0E3A0319E12E013A0319EF2E033A94
:100F90000319892F013A0319992FCE2F0800200039
:100FA000C800C901CA014308FF3EC500FF30443DE7
:100FB000C6004A08803AC7004608803A4702031D27
:100FC000E32F450849020318080020004935480767
:100FD000C50045088600013087004935023E4807B4
:100FE000C6004608840001308500403F803F413FF5
:0C0FF000813F0130C9070030CA3DD32FFB
:10100000210012157D302000C30043082200E400B7
:10101000E3012000E90108002000121D08003D0046
:10102000101D1B288E10220059083D009200101D33
:101030001B2810111728101C752896012000EB01A1
:101040000430FC007C08C2000130C202420A0319CD
:101050003B284208FC000130FC35FF3E031D2C28D4
:101060007C35203E860087010030C03F0030C13F04
:10107000C23FC33F2428C201C20A0130C202420A51
:101080000319482842086A3E8600870181013D28ED
:101090002200DA017D30FC007C08E400E30120003E
:1010A000C201C20A02304202031865284208983E73
:1010B000860087010E30873D81010130FC007C08ED
:1010C000C20702304202031C562816303D00980029
:1010D00004309B31CE2388313D009001393092009D
:1010E0000330FC007C082000E9003D00101F82282E
:1010F000101301302300A0070030A13D0030A23DB5
:101100000030A33D3D00101E8F2810128E141208CF
:10111000FC007C082200D90004303D009200901EA3
:10112000A028181C9F282000A01BA41F9D28241D58
:101130009D2804309B31CE2388313D001810901239
:101140000430FC007C082000C00001302000C002F8
:10115000400A0319D2283D00901DD2280F08FC0038
:101160007C082000C1003D0090112000410CFC00D3
:10117000FC0C7C0C0739003A031DA5284119CE2828
:10118000200C890C0F390D3A031DCA289D311C25EE
:101190008831A5289B31AD238831A52890310220C4
:1011A0008831A52820001211080021004508803947
:1011B000CA004A08CF004535CA004A08D500C41BFA
:1011C000551455080319F128550A031DEF2800305E
:1011D000C5000030C4000030C3000030C200C41796
:1011E000F9280030C5000030C4000030C3000030D2
:1011F000C20049088039CA004A08CF064935CA00EA
:101200004A08D000C81B5014500803191429500A6A
:10121000031D12290030C9000030C8000030C7008B
:101220000030C600C8171C290030C9000030C800B3
:101230000030C7000030C6005008031D5508031DCC
:101240002A290030C5000030C4000030C30000303F
:10125000C20008004208CA004A082000C30021005A
:1012600048089C317C248831200044082100DB00A0
:10127000200043082100DA005A08CA00CB01CC0143
:10128000CD014D08D4004C08D3004B08D2004A08C9
:10129000D1005B08CA00CB01CC01CD014D08D900BB
:1012A0004C08D8004B08D7004A08D6004308CA00AB
:1012B0004A082000C300210047089C317C24883163
:1012C000200044082100DB00200043082100DA0050
:1012D0005A08CA00CB01CC01CD014A08D1074B08FE
:1012E000D23D4C08D33D4D08D43D5B08CA00CB012C
:1012F000CC01CD014A08D6074B08D73D4C08D83D54
:101300004D08D93D4408CA004A082000C300210006
:1013100046089C317C248831200044082100DB00F1
:10132000200043082100DA005A08CA00CB01CC0192
:10133000CD014A08D1074B08D23D4C08D33D4D089A
:10134000D43D5B08CA00CB01CC01CD014A08D607C9
:101350004B08D73D4C08D83D4D08D93D0830D13514
:10136000D20DD30DD40D890BAF294308CA004A080A
:101370002000C300210046089C317C2488312000D5
:1013800044082100DB00200043082100DA005A084D
:10139000D1075B08D23D0030D33DD43D4208CA009E
:1013A0004A082000C300210047089C317C24883172
:1013B000200044082100DB00200043082100DA005F
:1013C0005A08D1075B08D23D0030D33DD43D0830E8
:1013D000D135D20DD30DD40D890BE8294208CA00AE
:1013E0004A082000C300210046089C317C24883133
:1013F000200044082100DB00200043082100DA001F
:101400005A08D1075B08D23D0030D33DD43D430894
:10141000CA004A082000C300210048089C317C24EF
:101420008831200044082100DB002000430821000F
:10143000DA005A08D6075B08D73D0030D83DD93DC1
:101440004408CA004A082000C300210047089C3114
:101450007C248831200044082100DB002000430860
:101460002100DA005A08D6075B08D73D0030D83D86
:10147000D93D4408CA004A082000C300210048089A
:101480009C317C248831200044082100DB002000AE
:1014900043082100DA005A08CA005B08CB00CC01DF
:1014A000CD010830CA35CB0DCC0DCD0D890B522A9C
:1014B0004A08D6074B08D73D4C08D83D4D08D93DC2
:1014C0005108CA005208CB005308CC005408CD0084
:1014D0001830CD36CC0CCB0CCA0C890B692A4A08C3
:1014E000D6074B08D73D4C08D83D4D08D93D0830AC
:1014F000D135D20DD30DD40D890B782A550850075C
:10150000CA00CB01CB0D4A08823EDA00FF304B3DCA
:10151000DB00D81BA02A0130D635D70DD80DD90D48
:10152000890B8C2AD41B56140130D135D20DD30D22
:10153000D40D890B952AFF30DA07FF30DB3D892A6D
:10154000D001D41FB92AFF305105CA00FF3052051F
:10155000CB00FF305305CC007F305405CD004D0843
:101560004C044B044A04031DB72A561CB92AD00167
:10157000D00A50080319E22A0130D6070030D73DBF
:101580000030D83D0030D93D591CE22A5608CA0027
:101590005708CB005808CC005908CD000130CE00C8
:1015A000CD37CC0CCB0CCA0CCE0BD02A4D08D900B1
:1015B0004C08D8004B08D7004A08D6000130DA079B
:1015C0000030DB3D5B08803ACA0080304A02031DD0
:1015D000EB2AFF305A02031CF72A7F302100D90082
:1015E0008030D8000030D7000030D600212B2100F9
:1015F0005B08803ACA0080304A02031D012B01308B
:101600005A0203180E2B00302100D9000030D800F8
:101610000030D7000030D600CF01212B21005A081E
:10162000CA004A08D500FF30D605FF30D7057F3005
:10163000D8050030D9055518D8175536CA004A08BC
:10164000D9004F08CA004A08D9045908C5005808EB
:10165000C4005708C3005608C200080020005808FC
:101660008039DD005D082100A40020005835DD0030
:101670005D082100A6002000D71F402B2100261462
:10168000210026080319542B260A031D502B003075
:101690002000D8000030D7000030D6000030D50040
:1016A0002000D717D8015D2B00302000D800003073
:1016B000D7000030D6000030D5005C088039DD004E
:1016C0005D082100A50025082406031D241720001D
:1016D0005C35DD005D082100A5002000DB1F722BBA
:1016E00021002514210025080319862B250A031D36
:1016F000822B00302000DC000030DB000030DA00FC
:101700000030D9002000DB17DC018F2B00302000D7
:10171000DC000030DB000030DA000030D9002100AE
:10172000260825020318EF2B241F9C2B8030200055
:10173000DD005D082100A40626082000DD005D080C
:101740002100A70025082000DD005D082100A6007B
:1017500027082000DD005D082100A50020005508B5
:10176000DD005D082100A70020005908DD005D08AC
:10177000D500210027082000DD005D08D9005608AB
:10178000DD005D082100A70020005A08DD005D088B
:10179000D600210027082000DD005D08DA00570888
:1017A000DD005D082100A70020005B08DD005D086A
:1017B000D700210027082000DD005D08DB00580865
:1017C000DD005D082100A70020005C08DD005D0849
:1017D000D800210027082000DD005D08DC00210082
:1017E000A70126082000DD00DE01DD09DE09DD0A93
:1017F0000319DE0A2100250820005D07DF005E08CE
:1018000003185E0AE0006008803AE100803061025F
:10181000031D0C2C1A305F02031C4C2C20005808AE
:101820005704560455040319172C0130182C0030A6
:10183000DD005D082100A70000302000D800003046
:10184000D7000030D6000030D50021002508200048
:10185000DD005D082100A600512C271C372C2736FF
:1018600001382000DD005D082100A700392C03109D
:10187000A70C2000551C3E2C2100A717013020008A
:10188000DD00D837D70CD60CD50CDD0B412C013040
:10189000DD005D082100A607210025082602031CA3
:1018A0002D2C241B8C2C2608031D602C00302000BE
:1018B000D8000030D7000030D6000030D500080036
:1018C00020005908D5075A08D63D5B08D73D5C086B
:1018D000D83D581C242D2100271C762C2736013892
:1018E0002000DD005D082100A700782C0310A70C64
:1018F0002000551C7D2C2100A71701302000DD00A1
:10190000D837D70CD60CD50CDD0B802C0130DD0080
:101910005D082100A607242D20005808803ADD002C
:101920005C08803A5D02031D9F2C5B085702031D73
:101930009F2C5A085602031D9F2C59085502031864
:10194000EC2CFF30DD00FF30DE00FF30DF00FF3029
:10195000E0005908E1005A08E2005B08E3005C0877
:10196000E4005509E5005609E6005709E700580963
:10197000E800E50A0319E60A0319E70A0319E80A69
:101980006508E1076608E23D6708E33D6808E43D55
:101990006108DD076208DE3D6308DF3D6408E03D65
:1019A0006008D8005F08D7005E08D6005D08D50043
:1019B0008030DD005D082100A406A709A70A2708DA
:1019C000031DF42C01302000D5070030D63D003037
:1019D000D73D0030D83DF42C5908D5025A08D63BE3
:1019E0005B08D73B5C08D83B2000580857045604D6
:1019F0005504031D212D21002708031D212D003032
:101A00002000D8000030D7000030D6000030D500CC
:101A100008000130D535D60DD70DD80D890B0A2D0C
:101A20002100A71F152D200055142100271C1A2D59
:101A300003141B2D0310A70D26080319212D0130B7
:101A4000A6022000D71F092D2100A501A71F322DB6
:101A500027087F39031D302D2000551C322D210011
:101A6000A501A50A210025080319632D01302000D6
:101A7000D5070030D63D0030D73D0030D83D581C4A
:101A8000632D5508DD005608DE005708DF005808B2
:101A9000E0000130E100E037DF0CDE0CDD0CE10B93
:101AA0004B2D6008D8005F08D7005E08D6005D089F
:101AB000D5002100260A0319632D01302000DD0026
:101AC0005D082100A6072100260A031D2608031D24
:101AD000762D00302000D8000030D7000030D6002E
:101AE0000030D500210026080319A401261C7B2DF7
:101AF0002000D717802D7F302000DD005D08D7053E
:101B0000210026362000DD005D08D8002100A41F3A
:101B100008002000D81708002200CC004C088600DE
:101B200001308700403F2100DC00413FDD00423FA3
:101B3000DE00433FDF0022004C08163E86000130E5
:101B4000870001089C313E248D312000430822008B
:101B5000B500200044082200B600B701B8013808DB
:101B60002000CA00220037082000C90022003608E1
:101B70002000C800220035082000C7000030903146
:101B80002E208D3120004A082100E3002000490862
:101B90002100E200200048082100E1002000470861
:101BA0002100E0003F30E7003330E6003330E5004D
:101BB0003330E4009F316D278D3121005F08220012
:101BC000C70021005E082200C60021005D08220037
:101BD000C50021005C082200C4004C08173E8600A6
:101BE00001308700403F2100DC00413FDD00423FE3
:101BF000DE00433FDF0022004C082D3E860001300E
:101C0000870001089C313E248D31200043082200CA
:101C1000B500200044082200B600B701B80138081A
:101C20002000CA00220037082000C9002200360820
:101C30002000C800220035082000C7000030903185
:101C40002E208D3120004A082100E30020004908A1
:101C50002100E200200048082100E10020004708A0
:101C60002100E0003F30E7003330E6003330E5008C
:101C70003330E4009F316D278D3121005F08220051
:101C8000CB0021005E082200CA0021005D0822006E
:101C9000C90021005C082200C80005302000C300F4
:101CA0000030C40022004C088731CF278D31053029
:101CB0002000C3000030C40022004C08173E8731CA
:101CC000CF278D3122004C08860001308700440860
:101CD000C03F4508C13F4608C23F4708C33F4C08C4
:101CE000173E8600013087004808C03F4908C13FC1
:101CF0004A08C23F4B08C33F4C08143E86000130DF
:101D00008700403FB500413FB60035082000C700BE
:101D1000220036082000C800C901CA0100309031F5
:101D20002E208D3120004A08DC004908DB004808DD
:101D3000DA004708D900220047082000C600220028
:101D400046082000C500220045082000C4002200EB
:101D500044082000C3009B31B7238D312000460882
:101D6000D8004508D7004408D6004308D5008B3179
:101D70002E238D31200058082200AB002000570888
:101D80002200AA00200056082200A90020005508C1
:101D90002200A8009D31E0258D3122002908BF00D6
:101DA0002808BE004C082B3E860001308700403FCB
:101DB000B500413FB60035082000C70022003608B4
:101DC0002000C800C901CA01003090312E208D3199
:101DD00020004A08DC004908DB004808DA00470810
:101DE000D90022004B082000C60022004A0820002B
:101DF000C500220049082000C40022004808200035
:101E0000C3009B31B7238D3120004608D800450818
:101E1000D7004408D6004308D5008B312E238D31DE
:101E2000200058082200AB00200057082200AA001A
:101E3000200056082200A900200055082200A80012
:101E40009D31E0258D3122002908C1002808C000FD
:101E5000330886000130870081013F082000C4005C
:101E600022003E082000C3009C3107248D31C2307F
:101E7000840098308500003F2200B500013FB60085
:101E80003608803AB70020004408803A2200370222
:101E9000031D4E2F20004308220035029231031803
:101EA000522AC030840098308500003F2200B500DF
:101EB000013FB60035082000C70022003608200088
:101EC000C800890D893B8909C900CA0001309031D9
:101ED0002E208D3120004A082100EF002000490803
:101EE0002100EE00200048082100ED0020004708F6
:101EF0002100EC00C030840098308500003F2200B3
:101F0000B700013FB800B709B809B70A0319B80A02
:101F100037082000C700220038082000C800890DBB
:101F2000893B8909C900CA00013090312E208D31CA
:101F300020004A082100EB00200049082100EA00A7
:101F4000200048082100E900200047082100E8009F
:101F50004430E7004F30E6008030E5000030E40018
:101F60004330E3005C30E2000030E1000030E0008C
:101F7000220047082100DF00220046082100DE0081
:101F8000220045082100DD00220044082100DC0079
:101F900094312E248D3121005F082200AB002100F6
:101FA0005E082200AA0021005D082200A90021008D
:101FB0005C082200A8009D31E0258D312200280810
:101FC000B9003908C2004208031DFE2F3F08803ABD
:101FD000B50080303502031DEF2F01303E0203189B
:101FE000F62FFF302200BA00FF30FA2F0130220016
:101FF000BA000030BB003A0892314B2A9231492A8C
:10200400043020006906031D142832083D009600A0
:10201400160803190F28053010280330F500750839
:102024002000E90022005B03031D0800D61F0800FE
:1020340054085504031D2328D61304309C31D1249D
:1020440008002000241F2A2808309C31D1240800CD
:1020540048309C31D12408002000CF004F08031DD4
:10206400CA1F44284709D1004809D2004909D300AE
:102074004A09D400D10A0319D20A0319D30A03194D
:10208400D40A4C284A08D4004908D3004808D2008E
:102094004708D1004A08490448044704031D5B2843
:1020A4000030CA000030C9000030C8000030C7004A
:1020B40008009630CB004B08D000FE3054050319BD
:1020C40082280130CB004B08D0070130D436D30C22
:1020D400D20CD10C890B68285F280130CB004B0847
:1020E400D0070130D1070030D23D0030D33D00305D
:1020F400D43D0130D436D30CD20CD10C890B7C28BE
:10210400FF305405031990286F280130D0020130A4
:10211400D135D20DD30DD40D890B8A28D31B962823
:1021240002305002031887285018A028FF30D10528
:10213400FF30D2057F30D305FF30D4050310D00C17
:102144005008CB00CC01CD01CE011830CB35CC0DDD
:10215400CD0DCE0D890BA8284B08D1044C08D20410
:102164004D08D3044E08D4044F08031DCA1FBB28CE
:10217400D4175408CA005308C9005208C8005108AB
:10218400C70008002000CB004B08C7004708CC005C
:1021940045084604031908004308C7004C08860094
:1021A40001308700470881004308C7004508FF3E07
:1021B4004C07C800480886000130870047088100A2
:1021C40000304602033003194502031C080043088B
:1021D400C7004C0A86000130870047088100430885
:1021E400C7004C08023E8600013087004708810082
:1021F4004308C7004508FE3E4C07C800480886004F
:1022040001308700470881004308C7004508FD3EA8
:102214004C07C80048088600013087004708810041
:1022240000304602073003194502031C0800430826
:10223400C7004C08033E8600013087004708810030
:102244004308C7004508FC3E4C07C8004808860000
:102254000130870047088100003046020930031925
:102264004502031C08004C09C7004D09C800C70AF1
:102274000319C80A00304705C90000304805CA00E0
:102284004908C7004708CC074908C5024A08C63BA5
:10229400FC30C505FF30C60545084604031908008F
:1022A4004308C7004C0886000130870047088100B6
:1022B4000130C5020030C63B0130C7004708CC07D7
:1022C4004E292000E100DB01DC01DD01DE010030EC
:1022D400C300C4002E30C5000030C6006108903130
:1022E400C420913120005508D7006108163E8600AD
:1022F40001308700570881005608D70061082D3E39
:1023040086000130870057088100DF01E001600882
:10231400803AD70080305702031D92290A305F02A9
:102324000318B629200055089C313E249131200021
:102334004308DB074408DC3D56089C313E249131B8
:1023440020004308DD074408DE3D0130DF0700308C
:10235400E03D6008803AD70080305702031DB4295D
:102364000A305F02031C94290A302000C3000030A5
:10237400C4005C08C6005B08C5009C319C249131F4
:1023840020006108143E8600013087004308C03FE6
:102394004408C13F0A30C3000030C4005E08C600D0
:1023A4005D08C5009C319C249131200061082B3EBE
:1023B4008600013087004308C03F4408C13FDF0165
:1023C400E0016008803AD70080305702031DEC29F1
:1023D40005305F020318080020006108143E8600DF
:1023E40001308700403FD700413FD8005708C7005D
:1023F4005808C800C901CA01003090312E2091311B
:1024040020005F08D9000130D935FF3E031D062A9C
:1024140059356107DA005A088600013087004708F9
:10242400C03F4808C13F4908C23F4A08C33F61084A
:102434002B3E860001308700403FD700413FD80043
:102444005708C7005808C800C901CA0100309031B4
:102454002E20913120005F08D9000130D935FF3E8C
:10246400031D302A59356107DA005A08173E8600E1
:10247400013087004708C03F4808C13F4908C23FB0
:102484004A08C33F0130DF070030E03DE32942033F
:10249400FF3AB50033088600013087003508810013
:1024A40022003408860001308700810141082000A1
:1024B400C400220040082000C3009C31072492314C
:1024C400C230840098308500003F2200B500013FEF
:1024D400B6003608803AB70020004408803A22004B
:1024E4003702031D792A200043082200350203180D
:1024F4000800C030840098308500003F2200B500F9
:10250400013FB60035082000C7002200360820002D
:10251400C800890D893B8909C900CA00013090317E
:102524002E20923120004A082100EF0020004908A3
:102534002100EE00200048082100ED00200047089B
:102544002100EC00C030840098308500003F220058
:10255400B700013FB800B709B809B70A0319B80AA8
:1025640037082000C700220038082000C800890D61
:10257400893B8909C900CA00013090312E2092316B
:1025840020004A082100EB00200049082100EA004D
:10259400200048082100E900200047082100E80045
:1025A4004430E7004F30E6008030E5000030E400BE
:1025B4004330E3005C30E2000030E1000030E00032
:1025C40022004B082100DF0022004A082100DE001F
:1025D400220049082100DD00220048082100DC0017
:1025E40094312E24923121005F082200AB00210097
:1025F4005E082200AA0021005D082200A900210033
:102604005C082200A8009D31E025923122002808B0
:10261400B9003908C3004308031D2E2B4108803A32
:10262400B50080303502031D192B01304002031818
:10263400202B01302200BC000030242BFF3022006C
:10264400BC00FF30BD003C08B500340886000130F2
:1026540087003508810008004308B5003408860067
:10266400013087003508810008002300D9010030BB
:102674002000C300C4000430C5000030C600D230BE
:102684009031C420933168302200CD004D082000E1
:10269400C300DA302200CE004E082000C4006130AE
:1026A4009E315F2693312200CF004F082300D700CC
:1026B40065302200CD004D082000C300DB3022002D
:1026C400CE004E082000C4005F309E315F26933157
:1026D4002200CF004F082300D800DF302200CD00B5
:1026E4004D082000C300DC302200CE004E0820003C
:1026F400C4005D309E315F2693312200CF004F0825
:102704002300D600DE302200CD004D08B300DD30BA
:10271400CE004E08B400A4308D318C2593310230A4
:102724002300570603199D2B57080139D210031DA6
:10273400D214D901D90A023058060319A82B580813
:1027440001395210031D5214D901D90A22005C0820
:102754000319182C23005603031D032C5D080319C9
:102764005E080319FF2B5E082000C300C401C31BCD
:10277400C4039B31EE239331200043082200CD0093
:10278400200044082200CE0023005D082000C3007E
:10279400C401C31BC4039B31EE23933122004E08B2
:1027A400803ACF0020004408803A22004F02031DE3
:1027B400DF2B2000430822004D020318F22B2300D4
:1027C4005D03FF3A2200CD004D082300D500BC3044
:1027D4002000C3000230C4009C3120249331FF2B1D
:1027E40023005E08803A753E031CFA2B5216FF2B19
:1027F4005E08803A8A3E031CD2152300D901D90A07
:10280400182C5E0803195D080319162C5E082200B3
:10281400CD004D082300D3005D082200CD004D08F3
:102824002300D400D901D90A2200DC01230059086D
:1028340003190800D2302200CD004D082000C30047
:10284400C40104302200CE004E082000C500C60199
:10285400013095313B250800210067082000D8008D
:10286400210066082000D700210065082000D6005A
:10287400210064082000D500210063082000C60060
:10288400210062082000C500210061082000C40066
:10289400210060082000C3009B31B723943120003D
:1028A4004608DC004508DB004408DA004308D90088
:1028B4008B312E239431200058082100AB002000D6
:1028C40057082100AA00200056082100A900200072
:1028D40055082100A8006F082000D80021006E08C8
:1028E4002000D70021006D082000D60021006C08CC
:1028F4002000D50021006B082000C60021006A08D2
:102904002000C500210069082000C40021006808D7
:102914002000C3009B31B723943120004608DC001B
:102924004508DB004408DA004308D9008B312E2324
:102934009431200058082100AF00200057082100DE
:10294400AE00200056082100AD00200055082100EB
:10295400AC0096316D26943121002B08C5002A085D
:10296400C4002908C3002808C2005F082000D8005A
:1029740021005E082000D70021005D082000D60059
:1029840021005C082000D500210063082000C60057
:10299400210062082000C500210061082000C40055
:1029A400210060082000C3009B31B723943120002C
:1029B4004608DC004508DB004408DA004308D90077
:1029C4008B312E239431200058082100C9002000A7
:1029D40057082100C800200056082100C700200025
:1029E40055082100C6008831D520943121004508BE
:1029F4002200A700210044082200A6002100430869
:102A04002200A500210042082200A40021006B0836
:102A14002000D80021006A082000D700210069089E
:102A24002000D600210068082000D50022002708D5
:102A34002000DC00220026082000DB0022002508FC
:102A44002000DA00220024082000D9008B312E2334
:102A5400200058082100DF00200057082100DE0074
:102A6400200056082100DD00200055082100DC006C
:102A740008002000CE0006306906031D0800440843
:102A8400031D4308031D080003144E0DC700470827
:102A9400D100460803195B2D5108C7000130C73522
:102AA400FF3E031D512D4735203E86008701811BC3
:102AB400080020005108C7000130C735FF3E031D40
:102AC4005F2D4735203E86008701811F6B2D6400F2
:102AD4005B2DCD014E08C43E840098300318013E9E
:102AE40085000008C7005108C8000130C835FF3E02
:102AF400031D782D4835013E203E86008701470896
:102B040081004508C700C801C71BC8035108C90094
:102B14000130C935FF3E031D8B2D4935013E203E52
:102B2400860087014808803A803C031D9B2D470896
:102B340001020318AF2D20005108C7000130C7352A
:102B4400FF3E031DA12D4735013E203E860087012F
:102B54000108C8004808C500C22D20005108C7005C
:102B64000130C735FF3E031DB32D4735013E203EDE
:102B7400860087014503FF3A0107C8004808CD00D5
:102B84004508C7004708CC005108C700C801C7352D
:102B9400C80DB430C9009830CA00470849078600F8
:102BA40048084A3D87005108CB000130CB35FF3E31
:102BB400031DD82D4B35023E203E84008501403F45
:102BC400803F413F813F5108C7000130C735FF3E78
:102BD400031DE82D4735023E203E86008701403F15
:102BE400CF00413FD000FF30C7004708C507450A62
:102BF4000319332E44080319122E44088600870152
:102C04000108C7004F088600500887004708810064
:102C14000130C7004708C4070130CF070030D03D5A
:102C240043080319F52D4308860001308700010885
:102C3400C7004F088600500887004708810001300C
:102C4400C7004708C3070130CF070030D03DF52D3A
:102C54004F0886005008870081010130CF070030FB
:102C6400D03DFF30C7004708CD074D0A031D2A2E6B
:102C74005108C7000130C735FF3E031D3D2E4735BF
:102C8400203E86008701011F512E0830C7005108DD
:102C9400C8000130C835FF3E031D4C2E5A2E483063
:102CA400C7005108C8000130C835FF3E031D562E29
:102CB4004835203E86008701470881005108C70037
:102CC4000130C735FF3E031D632E4735203E860085
:102CD40087018117080021002F088039B0003008CF
:102CE400B9002F35B0003008C000AE1B40144008B6
:102CF40003198A2E400A031D872E0030AF000030CE
:102D0400AE000030AD000030AC00AE17AF01922E23
:102D14000030AF000030AE000030AD000030AC0039
:102D24002B088039B0003008B9062B35B0003008C4
:102D3400C100AA1B411441080319AE2E410A031D08
:102D4400AB2E0030AB000030AA000030A9000030E8
:102D5400A800AA17AB01B62E0030AB000030AA00C1
:102D64000030A9000030A8002B082A0429042804F4
:102D7400031DD52E0030AF000030AE000030AD0092
:102D84000030AC008030AE047F30AF043908B000AE
:102D94003008AF042F08AB002E08AA002D08A900A4
:102DA4002C08A80008004008031DE92E0030AF00DD
:102DB4000030AE000030AD000030AC002F08AB0096
:102DC4002E08AA002D08A9002C08A8000800410814
:102DD400B000B101B009B109B00A0319B10A400841
:102DE4003007B20031080318310AB30032087F3EBD
:102DF400BA000030333DBB002F08B8002E08B700DE
:102E04002D08B6002C08B5000030AF000030AE002D
:102E14000030AD000030AC000030BF000030BE0018
:102E24000030BD000030BC00C1011A30410203185B
:102E3400532F41080319352F0130B535B60DB70DA1
:102E4400B80D890B1F2F0130AC35AD0DAE0DAF0D94
:102E5400890B262FBF1B2C140130BC35BD0DBE0DB4
:102E6400BF0D890B2F2F2B083802031D432F2A086F
:102E74003702031D432F29083602031D432F280858
:102E84003502031C4E2F3F172808B5022908B63B0C
:102E94002A08B73B2B08B83B0130B0003008C10703
:102EA400172F3808370436043504031D3C14AE1BB1
:102EB400702F0130AC35AD0DAE0DAF0D890B5C2F0D
:102EC400BF1B2C140130BC35BD0DBE0DBF0D890BCD
:102ED400652FFF30BA07FF30BB3D592FC101BF1F1B
:102EE400892FFF303C05B000FF303D05B100FF30B5
:102EF4003E05B2007F303F05B3003308320431048D
:102F04003004031D872F2C1C892FC101C10A4108DD
:102F14000319B22F0130AC070030AD3D0030AE3D97
:102F24000030AF3D2F1CB22F2C08B0002D08B1008B
:102F34002E08B2002F08B3000130B400B337B20C2E
:102F4400B10CB00CB40BA02F3308AF003208AE00A4
:102F54003108AD003008AC000130BA070030BB3D89
:102F64003B08803AB00080303002031DBB2FFF3095
:102F74003A02031CCA2FFF302100BA000030BB0004
:102F84000030AF000030AE000030AD000030AC00C7
:102F940021003B08803AB00080303002031DD42F5A
:102FA40001303A020318E22F2100BA01BB010030BC
:102FB400AF000030AE000030AD000030AC00B9010D
:102FC40021003A08B0003008C000401CEB2FAE17B7
:102FD400EF2F7F30B0003008AE054036B000300827
:102FE400AF003908B0003008AF042F08AB002E083A
:102FF400AA002D08A9002C08A800080034340334C2
:1030040054340034613400346B340034613400349B
:103014006D34003461340034743400347334003457
:1030240075340034203400345434003465340034AE
:1030340063340034683400346E3400346F34003444
:103044006C3400346F340034673400347934003421
:1030540020340034493400346E3400346334003492
:103064002E3400340534013409340234A1340134DB
:1030740009340134A13400340534093419340134D9
:103084002934053415340034253401349534053499
:103094007534013481340334953401347534033484
:1030A4008134013405340134093430340934313481
:1030B400093438341534813425347F347534083474
:1030C4009534033481340634C034C03409340234B2
:1030D4002934003401340134003480343234093466
:1030E4000434003400340134033401340234003431
:1030F4000934213411340134003401342234343499
:103104000034073405348134033404340034013486
:1031140018340334533400347434003469340034C0
:10312400633400346B3400342D3400344D340034B3
:103134006F3400347534003473340034653400342F
:1031440012340134003402340034003400340834BE
:10315400A43404345C3400340234003401340234C2
:1031640000340134103420341834203450342034E2
:10317400A0342034043403340934043419340034BE
:0C3184000A3400340834043408340434E5
:103730000C3400340334640080010131890B9C2B6C
:103740000034FE0012001E00FE0BA22B00340E34CB
:10375000003405340E340034043422005B03031DAE
:10376000080004309B31CE232200DB01080020003A
:103770004608450444044304031908008030C60683
:1037800008002000CE000030C300C4000230C50095
:103790000030C6004E089031C4200800F100083007
:1037A0002000A1003030A2000030A3007108F0001A
:1037B0007008A000A01708002000C4004435C30012
:1037C0000130C335FF3E031DE12B4335043E203E4F
:1037D00086008701010D010D013908002000440811
:1037E000803AC50080304502031DF82B01304302AA
:1037F0000318080020004309C5004409C600C50A93
:103800000319C60A4508C3004608C4000800200082
:103810004408803AC50080304502031D112C013058
:1038200043020318080020004309C5004409C600EC
:10383000C50A0319C60A4508C3004608C4000800A3
:103840002000C601C7014708803AC5004408803AF5
:103850004502031D2D2C43084602031808000630BC
:103860002000C5003030890B332CC50B332C0000F1
:1038700001302000C6070030C73D232C2000C600C1
:103880004608C500C50DC50D21001D0820004506D0
:103890008339450621009D001D141A30890B4E2CDA
:1038A000003221009D149D18532C1C082000C400D8
:1038B00021001B082000C300080020006908031D28
:1038C000080011303D009200970190018E01960191
:1038D000143091008E196E2C8E156A2C0030230046
:1038E000A3000030A2000030A1000030A0002000A2
:1038F0001211E901E90A08002000CB00C701C80144
:103900004308C500C6014508C9004608CA004B1C4B
:103910008D2C4908C7074A08C83D0130C935CA0D72
:10392000890B8E2C0310CB0C4B08031D872C4808E9
:10393000C4004708C30008002000C801C9014308AB
:1039400044040319CC2CCA01CA0AC41BB12C01308F
:10395000C335C40D890BA82C0130C7004708CA071E
:10396000A52C0130C835C90D890BB22C440846027C
:10397000031DBC2C43084502031CC32C4308C5028D
:103980004408C63B48140130C436C30C890BC42C10
:103990000130CA02031DB12C4908C4004808C30005
:1039A0000800F2002000A50122005619112D54082C
:1039B000F0007008F40009307402031CE32C083096
:1039C000F0007008F4007408F00070082000A500F2
:1039D0007408F000F10170082200D4027108D53B90
:1039E000D618112D3830F0007008F3007408031950
:1039F000112D5618FB2C520884005308850000082E
:103A0000F000730886008701700881000130D2073A
:103A10000030D33D0130F0007008F3070130F402AC
:103A2000F62C38302000A6000030A7007208F00005
:103A30007008A400A41708002200DB012000A013D6
:103A4000A4132200D601D401D50185315A259D3118
:103A50009E31E2269D313D000E122200D61F642DBC
:103A60002000B01F522D0130FB007B082200DB003C
:103A7000550820003702031D412D22005408200064
:103A8000360203184A2D37082200D50020003608D8
:103A90002200D40008309B31CE239D3148309C3128
:103AA000D12408000230FB007B082200DB0020004C
:103AB00036083704031D602D48309C31D1249D31D8
:103AC00004309B31CE23080004309C31D1249D3139
:103AD00004309B31CE23080064008B013F00ED01D0
:103AE000173021009700FC309900903027009B0090
:103AF00021000E148E140E168E169E171E088F3976
:103B000050389E00FC309E0523000E108E100030B1
:103B10002000C300C4000430C5000030C600D2300D
:103B20009031C4209D3168302200D0005008200020
:103B3000CD0061309B31C1239D3165302200D00022
:103B400050082000CD005F309B31C1239D31DF3014
:103B50002200D00050082000CD005D309B31C123F1
:103B60009D3105302200D00050082000D5000430DF
:103B70002200D10051082000D600A43091316321E9
:103B80009D318B162100951215169511073095045D
:103B90000B11200095018B170B1764008831002052
:103BA0009D3164009C315D249D3101309B31DC23CB
:103BB0009D31003A031DD12D933137239D31D12DF5
:103BC00022002808AC002908AD002A08AE002B0806
:103BD000AF0003102E0D2F0DB0003008B2003208D8
:103BE000031DFB2D0030AB000030AA000030A900FF
:103BF0000030A80008002808AC002908AD002A08F9
:103C0000AE002B08AF001F30AF36AE0CAD0CAC0CC5
:103C1000890B042E2C08B0003008B100AA17FF3021
:103C2000A805FF30A905FF30AA050030AB05963086
:103C3000B202B21F372E3208803A973E0318292E5F
:103C40000030AB000030AA000030A9000030A8000E
:103C500008000130AB36AA0CA90CA80C890B2A2E3F
:103C60000130AC002C08B2070319502E292E203049
:103C70003202031C4D2E0030AB000030AA00003091
:103C8000A9000030A80008000130A835A90DAA0D30
:103C9000AB0D890B452E0130B2023208031D442EB4
:103CA000310803190800A809A909AA09AB09A80A3B
:103CB0000319A90A0319AA0A0319AB0A080020006C
:103CC000CC004308860001308700403FC500413FDB
:103CD000C60045088600460887000130C700430833
:103CE000023E840001308500000A772EC735890B1B
:103CF000762E47080105C8004808C9004408860018
:103D00000130870081014C088600013087000136B0
:103D1000C5004C088600013087004508810049082D
:103D2000031D952ECA01CB01992E8030CA000030A8
:103D3000CB004A08C5004C088600013087004508C2
:103D40008104CD2E4C0A8600013087000108031D36
:103D5000B52E44088600013087008101810A4C0A93
:103D60008600013087008101810A013008004C0A79
:103D70008600013087000103031DC92E4408860018
:103D8000013087008101810A4C0A860001308700DA
:103D9000810100300800023008004C088600013024
:103DA00087000108C500C6014608003A0319D92E4C
:103DB000CB2E4508003A0319B72EFF3A0319A22E5D
:103DC000CB2E0800200030081F39013A031D0800DF
:103DD0003408031D0800063031060319092F1A2F75
:103DE0007A302200D2009830D3000930012F200011
:103DF0006B03031D1A2F34302200D2009830D300F9
:103E00003430F0007008D4008030F0007008D60024
:103E10001A2F20003308F000F1017108003A03194D
:103E2000122F1A2F7008213A0319F02E033A0319A2
:103E3000F72E1A2F2000300E890C0339013A031D8A
:103E40000800542F64302200D2000130D30001302A
:103E5000F0007008D4008030F0007008D600080030
:103E600063302200D2000130D3000130F00070082E
:103E7000D4008030F0007008D6000800200032081E
:103E8000F00070082200E4008430F0007008D600D2
:103E9000080020003208F00070082200E30084309F
:103EA000F0007008D600080020003108F000F10191
:103EB0007108003A03195D2F6C2F7008023A03193C
:103EC000222F013A0319302F093A03193E2F013AE4
:103ED0000319492F6C2F0800080021006308C50052
:103EE0006208C4006108C3006008C2003F302000BF
:103EF000D8008030D7000030D6000030D500210037
:103F000067082000C600210066082000C5002100C7
:103F100065082000C400210064082000C3009B3114
:103F2000B7239F3120004608DC004508DB00440829
:103F3000DA004308D9008B312E239F312000580826
:103F40002100C900200057082100C80020005608A1
:103F50002100C700200055082100C6008831D52067
:103F60009F3121004508EB004408EA004308E900BE
:103F70004208E8006B082000D80021006A082000F1
:103F8000D700210069082000D60021006808200021
:103F9000D50021005F08C5005E08C4005D08C300AD
:103FA0005C08C2006708C9006608C8006508C70049
:103FB0006408C6008831D5209F31210045082000C3
:103FC000DC00210044082000DB0021004308200021
:103FD000DA00210042082000D9008B312E23200076
:103FE00058082100DF00200057082100DE002000D3
:103FF00056082100DD00200055082100DC000800E3
:020000040001F9
:04000E008CCFCFDFE5
:00000001FF
